{
  "contractName": "Rating",
  "abi": [
    {
      "inputs": [
        {
          "internalType": "bytes32[]",
          "name": "movieNames",
          "type": "bytes32[]"
        }
      ],
      "payable": false,
      "stateMutability": "nonpayable",
      "type": "constructor"
    },
    {
      "constant": true,
      "inputs": [
        {
          "internalType": "uint256",
          "name": "",
          "type": "uint256"
        }
      ],
      "name": "movieList",
      "outputs": [
        {
          "internalType": "bytes32",
          "name": "",
          "type": "bytes32"
        }
      ],
      "payable": false,
      "stateMutability": "view",
      "type": "function"
    },
    {
      "constant": true,
      "inputs": [
        {
          "internalType": "bytes32",
          "name": "",
          "type": "bytes32"
        }
      ],
      "name": "ratingReceived",
      "outputs": [
        {
          "internalType": "uint8",
          "name": "",
          "type": "uint8"
        }
      ],
      "payable": false,
      "stateMutability": "view",
      "type": "function"
    },
    {
      "constant": true,
      "inputs": [
        {
          "internalType": "bytes32",
          "name": "movie",
          "type": "bytes32"
        }
      ],
      "name": "totalVotesFor",
      "outputs": [
        {
          "internalType": "uint8",
          "name": "",
          "type": "uint8"
        }
      ],
      "payable": false,
      "stateMutability": "view",
      "type": "function"
    },
    {
      "constant": false,
      "inputs": [
        {
          "internalType": "bytes32",
          "name": "movie",
          "type": "bytes32"
        }
      ],
      "name": "voteForMovie",
      "outputs": [],
      "payable": false,
      "stateMutability": "nonpayable",
      "type": "function"
    }
  ],
  "bytecode": "0x608060405234801561001057600080fd5b506040516103993803806103998339818101604052602081101561003357600080fd5b810190808051604051939291908464010000000082111561005357600080fd5b8382019150602082018581111561006957600080fd5b825186602082028301116401000000008211171561008657600080fd5b8083526020830192505050908051906020019060200280838360005b838110156100bd5780820151818401526020810190506100a2565b5050505090500160405250505080600190805190602001906100e09291906100e7565b5050610159565b828054828255906000526020600020908101928215610123579160200282015b82811115610122578251825591602001919060010190610107565b5b5090506101309190610134565b5090565b61015691905b8082111561015257600081600090555060010161013a565b5090565b90565b610231806101686000396000f3fe608060405234801561001057600080fd5b506004361061004c5760003560e01c80632f265cf7146100515780636c9d63ab14610099578063bf58ae3d146100c7578063e62fc7dc14610109575b600080fd5b61007d6004803603602081101561006757600080fd5b8101908080359060200190929190505050610151565b604051808260ff1660ff16815260200191505060405180910390f35b6100c5600480360360208110156100af57600080fd5b810190808035906020019092919050505061017a565b005b6100f3600480360360208110156100dd57600080fd5b81019080803590602001909291905050506101bb565b6040518082815260200191505060405180910390f35b6101356004803603602081101561011f57600080fd5b81019080803590602001909291905050506101dc565b604051808260ff1660ff16815260200191505060405180910390f35b600080600083815260200190815260200160002060009054906101000a900460ff169050919050565b600160008083815260200190815260200160002060008282829054906101000a900460ff160192506101000a81548160ff021916908360ff16021790555050565b600181815481106101c857fe5b906000526020600020016000915090505481565b60006020528060005260406000206000915054906101000a900460ff168156fea265627a7a72315820208f0206a60ff767b65d2dc4b0072a7033ee6cafa7e419c8a2dff13a9060e7ca64736f6c63430005100032",
  "source": "pragma solidity ^0.5.16;\r\n\r\ncontract Rating {\r\n    mapping (bytes32 => uint8) public ratingReceived;\r\n\r\n    bytes32[] public movieList;\r\n\r\n    constructor(bytes32[] memory movieNames) public {\r\n        movieList = movieNames;\r\n    }\r\n\r\n    function totalVotesFor(bytes32 movie) view public returns (uint8) {\r\n        return ratingReceived[movie];\r\n    }\r\n\r\n    function voteForMovie(bytes32 movie) public {\r\n        ratingReceived[movie] += 1;\r\n    }\r\n}",
  "sourcePath": "Z:\\codeplay\\blockchain_snippets\\movieRatingApp\\rating\\contracts\\Rating.sol",
  "compiler": {
    "name": "solc",
    "version": "0.5.16+commit.9c3226ce.Emscripten.clang"
  },
  "schemaVersion": "3.4.3",
  "updatedAt": "2021-12-18T06:09:44.616Z",
  "devdoc": {
    "methods": {}
  },
  "userdoc": {
    "methods": {}
  }
}